{
  "_format": "hh3-artifact-1",
  "contractName": "DiplomaVerification",
  "sourceName": "contracts/DiplomaVerification.sol",
  "abi": [
    {
      "inputs": [],
      "stateMutability": "nonpayable",
      "type": "constructor"
    },
    {
      "inputs": [
        {
          "internalType": "bytes32",
          "name": "",
          "type": "bytes32"
        }
      ],
      "name": "diplomas",
      "outputs": [
        {
          "internalType": "string",
          "name": "studentId",
          "type": "string"
        },
        {
          "internalType": "string",
          "name": "ipfsCid",
          "type": "string"
        },
        {
          "internalType": "bytes32",
          "name": "diplomaHash",
          "type": "bytes32"
        },
        {
          "internalType": "bool",
          "name": "isValid",
          "type": "bool"
        }
      ],
      "stateMutability": "view",
      "type": "function"
    },
    {
      "inputs": [
        {
          "internalType": "string",
          "name": "_studentId",
          "type": "string"
        },
        {
          "internalType": "string",
          "name": "_ipfsCid",
          "type": "string"
        },
        {
          "internalType": "bytes32",
          "name": "_diplomaHash",
          "type": "bytes32"
        }
      ],
      "name": "issueDiploma",
      "outputs": [],
      "stateMutability": "nonpayable",
      "type": "function"
    },
    {
      "inputs": [],
      "name": "owner",
      "outputs": [
        {
          "internalType": "address",
          "name": "",
          "type": "address"
        }
      ],
      "stateMutability": "view",
      "type": "function"
    },
    {
      "inputs": [
        {
          "internalType": "bytes32",
          "name": "_diplomaHash",
          "type": "bytes32"
        }
      ],
      "name": "revokeDiploma",
      "outputs": [],
      "stateMutability": "nonpayable",
      "type": "function"
    },
    {
      "inputs": [
        {
          "internalType": "bytes32",
          "name": "_diplomaHash",
          "type": "bytes32"
        }
      ],
      "name": "verifyDiploma",
      "outputs": [
        {
          "internalType": "bool",
          "name": "",
          "type": "bool"
        }
      ],
      "stateMutability": "view",
      "type": "function"
    }
  ],
  "bytecode": "0x6080604052348015600e575f5ffd5b50335f5f6101000a81548173ffffffffffffffffffffffffffffffffffffffff021916908373ffffffffffffffffffffffffffffffffffffffff160217905550610bd68061005b5f395ff3fe608060405234801561000f575f5ffd5b5060043610610055575f3560e01c806335b12a0e146100595780636e1cca25146100755780638da5cb5b146100a8578063c487da79146100c6578063e89cc997146100e2575b5f5ffd5b610073600480360381019061006e91906105fd565b610112565b005b61008f600480360381019061008a9190610685565b610230565b60405161009f9493929190610739565b60405180910390f35b6100b0610374565b6040516100bd91906107c9565b60405180910390f35b6100e060048036038101906100db9190610685565b610398565b005b6100fc60048036038101906100f79190610685565b610454565b60405161010991906107e2565b60405180910390f35b5f5f9054906101000a900473ffffffffffffffffffffffffffffffffffffffff1673ffffffffffffffffffffffffffffffffffffffff163373ffffffffffffffffffffffffffffffffffffffff16146101a0576040517f08c379a000000000000000000000000000000000000000000000000000000000815260040161019790610845565b60405180910390fd5b60405180608001604052808481526020018381526020018281526020016001151581525060015f8381526020019081526020015f205f820151815f0190816101e89190610a69565b5060208201518160010190816101fe9190610a69565b50604082015181600201556060820151816003015f6101000a81548160ff021916908315150217905550905050505050565b6001602052805f5260405f205f91509050805f01805461024f90610890565b80601f016020809104026020016040519081016040528092919081815260200182805461027b90610890565b80156102c65780601f1061029d576101008083540402835291602001916102c6565b820191905f5260205f20905b8154815290600101906020018083116102a957829003601f168201915b5050505050908060010180546102db90610890565b80601f016020809104026020016040519081016040528092919081815260200182805461030790610890565b80156103525780601f1061032957610100808354040283529160200191610352565b820191905f5260205f20905b81548152906001019060200180831161033557829003601f168201915b505050505090806002015490806003015f9054906101000a900460ff16905084565b5f5f9054906101000a900473ffffffffffffffffffffffffffffffffffffffff1681565b5f5f9054906101000a900473ffffffffffffffffffffffffffffffffffffffff1673ffffffffffffffffffffffffffffffffffffffff163373ffffffffffffffffffffffffffffffffffffffff1614610426576040517f08c379a000000000000000000000000000000000000000000000000000000000815260040161041d90610b82565b60405180910390fd5b5f60015f8381526020019081526020015f206003015f6101000a81548160ff02191690831515021790555050565b5f60015f8381526020019081526020015f206003015f9054906101000a900460ff169050919050565b5f604051905090565b5f5ffd5b5f5ffd5b5f5ffd5b5f5ffd5b5f601f19601f8301169050919050565b7f4e487b71000000000000000000000000000000000000000000000000000000005f52604160045260245ffd5b6104dc82610496565b810181811067ffffffffffffffff821117156104fb576104fa6104a6565b5b80604052505050565b5f61050d61047d565b905061051982826104d3565b919050565b5f67ffffffffffffffff821115610538576105376104a6565b5b61054182610496565b9050602081019050919050565b828183375f83830152505050565b5f61056e6105698461051e565b610504565b90508281526020810184848401111561058a57610589610492565b5b61059584828561054e565b509392505050565b5f82601f8301126105b1576105b061048e565b5b81356105c184826020860161055c565b91505092915050565b5f819050919050565b6105dc816105ca565b81146105e6575f5ffd5b50565b5f813590506105f7816105d3565b92915050565b5f5f5f6060848603121561061457610613610486565b5b5f84013567ffffffffffffffff8111156106315761063061048a565b5b61063d8682870161059d565b935050602084013567ffffffffffffffff81111561065e5761065d61048a565b5b61066a8682870161059d565b925050604061067b868287016105e9565b9150509250925092565b5f6020828403121561069a57610699610486565b5b5f6106a7848285016105e9565b91505092915050565b5f81519050919050565b5f82825260208201905092915050565b8281835e5f83830152505050565b5f6106e2826106b0565b6106ec81856106ba565b93506106fc8185602086016106ca565b61070581610496565b840191505092915050565b610719816105ca565b82525050565b5f8115159050919050565b6107338161071f565b82525050565b5f6080820190508181035f83015261075181876106d8565b9050818103602083015261076581866106d8565b90506107746040830185610710565b610781606083018461072a565b95945050505050565b5f73ffffffffffffffffffffffffffffffffffffffff82169050919050565b5f6107b38261078a565b9050919050565b6107c3816107a9565b82525050565b5f6020820190506107dc5f8301846107ba565b92915050565b5f6020820190506107f55f83018461072a565b92915050565b7f4f6e6c79206f776e65722063616e2069737375650000000000000000000000005f82015250565b5f61082f6014836106ba565b915061083a826107fb565b602082019050919050565b5f6020820190508181035f83015261085c81610823565b9050919050565b7f4e487b71000000000000000000000000000000000000000000000000000000005f52602260045260245ffd5b5f60028204905060018216806108a757607f821691505b6020821081036108ba576108b9610863565b5b50919050565b5f819050815f5260205f209050919050565b5f6020601f8301049050919050565b5f82821b905092915050565b5f6008830261091c7fffffffffffffffffffffffffffffffffffffffffffffffffffffffffffffffff826108e1565b61092686836108e1565b95508019841693508086168417925050509392505050565b5f819050919050565b5f819050919050565b5f61096a6109656109608461093e565b610947565b61093e565b9050919050565b5f819050919050565b61098383610950565b61099761098f82610971565b8484546108ed565b825550505050565b5f5f905090565b6109ae61099f565b6109b981848461097a565b505050565b5b818110156109dc576109d15f826109a6565b6001810190506109bf565b5050565b601f821115610a21576109f2816108c0565b6109fb846108d2565b81016020851015610a0a578190505b610a1e610a16856108d2565b8301826109be565b50505b505050565b5f82821c905092915050565b5f610a415f1984600802610a26565b1980831691505092915050565b5f610a598383610a32565b9150826002028217905092915050565b610a72826106b0565b67ffffffffffffffff811115610a8b57610a8a6104a6565b5b610a958254610890565b610aa08282856109e0565b5f60209050601f831160018114610ad1575f8415610abf578287015190505b610ac98582610a4e565b865550610b30565b601f198416610adf866108c0565b5f5b82811015610b0657848901518255600182019150602085019450602081019050610ae1565b86831015610b235784890151610b1f601f891682610a32565b8355505b6001600288020188555050505b505050505050565b7f4f6e6c79206f776e65722063616e207265766f6b6500000000000000000000005f82015250565b5f610b6c6015836106ba565b9150610b7782610b38565b602082019050919050565b5f6020820190508181035f830152610b9981610b60565b905091905056fea2646970667358221220cfdc4d70491f510008e13558b91b1fc2ec9384e2e207415a73213ccbf128bc0c64736f6c634300081c0033",
  "linkReferences": {},
  "deployedLinkReferences": {},
  "immutableReferences": {},
  "inputSourceName": "project/contracts/DiplomaVerification.sol",
  "buildInfoId": "solc-0_8_28-8b9fd59b22b60d6a1e15cac802fc61e60fa58765"
}